S315080000000CE000201D00000831000008310000083F
S3150800001031000008310000083100000800F052BE27
S31508000020DFF808D000F0B2FE00F046BFF8FF012066
S31508000030FEE76E2900F07682702900F0C0836629F3
S31508000040AFF300806529AFF300806729AFF300801E
S315080000506129AFF3008003681B0A28BF41F08001BD
S31508000060692900F02382642900F02082752900F0AE
S315080000701D826F2900F04D83782900F08C83E929C9
S3150800008000F0E882E42900F0E582F52900F0E28232
S31508000090EF2900F04A83F82900F08B830368DB090F
S315080000A028BF41F08001632900F06F85732900F0AD
S315080000B07485E32900F07F85F32900F08485002004
S315080000C07047000040BA7047C0BA704700BEFEE7E6
S315080000D0704770477CB51D4616460C00009001D047
S315080000E02044401E074B7B442A4669460190304609
S315080000F000F031FA05461CB10020694600F03EFAC8
S3150800010028467CBD9D04000040EA010310B59B0704
S315080001100FD1042A0DD310C808C9121F9C42F8D063
S3150800012020BA19BA884201D9012010BD4FF0FF3014
S3150800013010BD1AB1D30703D0521C07E0002010BD2A
S3150800014010F8013B11F8014B1B1B07D110F8013BB6
S3150800015011F8014B1B1B01D1921EF1D1184610BD97
S31508000160032A40F2308010F0030C00F0158011F8D5
S31508000170013BBCF1020F624498BF11F801CB00F8AD
S31508000180013B38BF11F8013BA2F1040298BF00F801
S3150800019001CB38BF00F8013B11F0030300F0DE8302
S315080001A0083AC0F0088051F8043B083A51F804CBE5
S315080001B0A0E80810F5E7121D5CBF51F8043B40F8AB
S315080001C0043BAFF30080D20724BF11F8013B11F8B6
S315080001D001CB48BF11F8012B24BF00F8013B00F8FA
S315080001E001CB48BF00F8012B7047431A28BF9A4233
S315080001F07FF6B6AF032A1044114440F2268010F069
S31508000200030F1EBF11F8013D521E00F8013D10F004
S31508000210030F7FF4F6AF11F0030300F0E483083A06
S31508000220C0F00B8051F8043D083A51F804CD40F867
S31508000230043D40F804CDFFF7F3BF121D5CBF51F82B
S31508000240043D40F8043DAFF30080D20724BF11F8FF
S31508000250013D11F801CD48BF11F8012C24BF00F863
S31508000260013D00F801CD48BF00F8012C704702F0A7
S31508000270FF0343EA032242EA024200F002B84FF0C3
S3150800028000020429C0F0128010F0030C00F01B8055
S31508000290CCF1040CBCF1020F18BF00F8012BA8BF63
S315080002A020F8022BA1EB0C0100F00DB85FEAC17C27
S315080002B024BF00F8012B00F8012B48BF00F8012BDA
S315080002C070474FF0000200B513469446964620390B
S315080002D022BFA0E80C50A0E80C50B1F12001BFF4F1
S315080002E0F7AF090728BFA0E80C5048BF0CC05DF857
S315080002F004EB890028BF40F8042B08BF704748BFA5
S3150800030020F8022B11F0804F18BF00F8012B704718
S3150800031010B5044610F0030F08BF11F0030F40F0A4
S3150800032015804FF0013E121FC0F20E8051F8043BB3
S31508000330A3EB0E0C2CEA030C1CEACE1C08BF40F8F3
S31508000340043BF0D0A1F1040102F10402521E08DBBD
S3150800035011F8013B002B00F8013BF7D11146FFF7D6
S315080003608EFF204610BD00004FF0013C50F8042BCC
S3150800037051F8043B9A4221D1A2EB0C03934313EAAA
S31508000380CC1317D150F8042B51F8043B9A4215D1D7
S31508000390A2EB0C03934313EACC130BD150F8042BAE
S315080003A051F8043B9A4209D1A2EB0C03934313EA92
S315080003B0CC13DBD04FF00000704700BFD01A01BA4B
S315080003C0B1FA81F101F0180122FA01F0CB40C1F12E
S315080003D02001DBB2C0B2C01A2CFA01F3D11A91433C
S315080003E011EAC311E6D1704770B5044685690068FD
S315080003F0C10601D5302600E02026C00707D070BD0B
S31508000400D4E9012130469047206A401C20626D1EBF
S31508000410F6D570BD70B5044685690078C00707D162
S3150800042070BDD4E9012120209047206A401C206233
S315080004306D1EF6D570BD09684A0501D540B27047EC
S31508000440C905FCD500B2704709684A0501D5C0B28E
S315080004507047C905FCD580B2704770B50C4605468D
S31508000460012A05D02878800600D5EA69002302E02B
S31508000470012305E05B1C934202D2E05C0028F9D117
S31508000480A869E618C01AA861286A18442862284686
S31508000490FFF7AAFF04E0D5E9012114F8010B9047FC
S315080004A0B442F8D32846FFF7B5FF70BD2DE9F041F1
S315080004B00646002410687529314616A510D0FFF7A0
S315080004C0BAFF002802DA404213A507E031688A0716
S315080004D001D512A502E0490704D511A5012401E0BA
S315080004E0FFF7B2FF00210A2206F1240709E0B0FB54
S315080004F0F2FCB0FBF2F302FB1C00303078541846CD
S31508000500491C0028F3D123462A463046BDE8F04167
S3150800051000F0D8BA000000002D0000002B000000F3
S315080005202000000011680268006A530501D50870AA
S315080005300AE0D30501D5088006E0130603D5C217DD
S31508000540C1E9000200E008600120704701694A1C01
S3150800055002610878704700B58FB0CDE901310021F6
S31508000560059105497944CDE903101146684600F01E
S3150800057031F90FB000BD0000E5FFFFFF0A6802F879
S31508000580010B0A607047D1E900239A4202D2531C34
S315080005900B601070704700002DE9FF5F15468A460C
S315080005A00446DFF8AC80F8440027D8E900103E4638
S315080005B0CDE9001010E03AF816106A4602A800F0D5
S315080005C006FB411C07D02178890603D5E26939184C
S315080005D091420DD80744761C2078800602D5E0693A
S315080005E0B84205DDAE42E6DB3AF816000028E2D14D
S315080005F0A069C01BA0612046FFF7F6FED8E90010E7
S31508000600CDE90010002017E03AF818106A4602A84B
S3150800061000F0DDFAB0F1FF3F81460BD000250DF161
S31508000620080B05E0D4E901211BF8050090476D1C6D
S315080006304D45F7D308F10100B0428046E4DB206A55
S31508000640384420622046FFF7E5FEBDE8FF9F00001C
S31508000650367900002DE9F0418046D21D22F00702C6
S315080006600025D2E90002F52915A614D0011E72F15B
S31508000670000106DA0023D0EB030063EB020211A6A1
S3150800068008E0D8F800108B0701D50FA602E0490745
S3150800069001D50EA601251146002408F1240704E019
S315080006A000F0CBF930323A55641C50EA0102F7D112
S315080006B02B46324621464046BDE8F04100F002BAD4
S315080006C0000000002D0000002B00000020000000A4
S315080006D030B4002100F1240408E002F00705D2082E
S315080006E0303542EA4372DB086554491C52EA030571
S315080006F0F3D10468002310A2250707D5A40600D461
S3150800070021B1C46901230DA2641EC46130BC00F086
S31508000710D9B910B5044621461068FFF795FE02467A
S315080007202046BDE810400023D2E7D21D22F007017B
S31508000730D1E90023CCE700000000000030000000EB
S31508000740F0B40D460188090502D5214C7C4402E027
S315080007501F4C7C440E34002100F1240608E002F008
S315080007600F071209E75D42EA03721B097754491C11
S3150800077052EA0307F3D102780023120704D5702D35
S3150800078006D009B1022311342246F0BC00F09AB90A
S3150800079001231034F8E770B504460D462146106863
S315080007A0FFF752FE024629462046BDE87040002360
S315080007B0C6E7D21D22F00703D3E90023C0E7036882
S315080007C0126843F0200303600823C3610023B7E7D8
S315080007D0987700002DE9F05F894604464FF0000A35
S315080007E0DFF874B1FB44C0F820A02046E1688847CA
S315080007F0002874D0252806D0D4E901219047206A1C
S31508000800401C2062F1E700265F462046E1688847DB
S315080008102028054607DB312D05D2781910F8200C5B
S3150800082008B10643F1E7B00701D526F00406C4F877
S315080008301CA00027C4F818A02A2D09D0284606F0BF
S315080008406CFF38B304EB8708303DC8F8185019E038
S3150800085059F8041B204604EB87029161E168884732
S31508000860012F054618D1E069002820DA26F020066F
S315080008701DE0D8F8180000EB800005EB4000303882
S31508000880C8F818002046E1688847054606F045FF7F
S315080008900028EED1012F0AD02E2D08D12046E16876
S315080008A088477F1C0546022F46F02006C4DBA06950
S315080008B0002803DA404246F00106A061F00701D09D
S315080008C026F010066C2D0BD0682D09D04C2D39D08A
S315080008D06A2D35D0742D35D07A2D33D016E038E010
S315080008E0E1682F4620468847B842054609D16C2F4D
S315080008F026D04FF48060E1680643204688470546BF
S3150800090004E06C2F1AD04FF4807006430DB3A5F19E
S315080009104100192802D8203546F400664A46294679
S31508000920204626604E46FFF784FB80B101280BD08F
S31508000930F61D26F0070000F1080956E74020E4E70F
S315080009408020D8E70020D6E706F104094DE72846B7
S3150800095052E7206ABDE8F09F2877000010B5203AD4
S31508000960C0F00B80B1E81850203AA0E81850B1E85A
S315080009701850A0E81850BFF4F5AF5FEA027C24BF10
S31508000980B1E81850A0E8185044BF18C918C0BDE807
S3150800099010405FEA827C24BF51F8043B40F8043BD0
S315080009A008BF7047D20728BF31F8023B48BF11F885
S315080009B0012B28BF20F8023B48BF00F8012B7047DF
S315080009C0431A28BF9A427FF6C9AF104410F0030FA6
S315080009D011441EBF11F8013D521E00F8013D10F0EA
S315080009E0030F7FF4F6AF103AC0F00A8010B531E96C
S315080009F01850103A20E91850BFF4F9AFBDE8104076
S31508000A00530724BF31E9081020E9081044BF51F8FC
S31508000A10043D40F8043D12F0030F08BF7047D207A3
S31508000A2028BF31F8023D48BF11F8012C28BF20F82D
S31508000A30023D48BF00F8012C704730B5B0F10A02F4
S31508000A404FEA900E71F100034EEA817EB0EB0E007C
S31508000A5061EB91014FEA101E4EEA017E10EB0E0083
S31508000A6041EB11114FEA102E4EEA016E10EB0E0003
S31508000A7041EB11214FEA104E4EEA014E10EB0E00E3
S31508000A8041EB1141401841F100014FEAD00040EA1C
S31508000A9041704FEAD10110EB80054FEA810444EA20
S31508000AA0907444EB01046D1944EB0404521BA341F2
S31508000AB04FF0000348BF0A3200D530BD401C41F153
S31508000AC0000130BD2DE9F0470D4699469246044689
S31508000AD000F124080168880604D5E06921F01001B0
S31508000AE0216000E00120A84201DD471B00E0002745
S31508000AF0A1697A1902EB0900081AA0612078C006D4
S31508000B0002D42046FFF770FC002608E0D4E901214C
S31508000B101AF806009047206A401C761C20624E454B
S31508000B20F4DB2078C0060AD52046FFF75DFC06E010
S31508000B30D4E9012130209047206A401C2062381EE3
S31508000B40A7F10107F4DC07E0D4E9012118F805004C
S31508000B509047206A401C2062281EA5F10105F3DC97
S31508000B602046FFF757FC2078000602D50220BDE88C
S31508000B70F0870120FBE710B5436913B1AFF3008096
S31508000B8001E0FFF76AFC012010BD127800F124018C
S31508000B900A7000224A700122EDE711684FF0FF3211
S31508000BA0E9E710B5436913B1AFF3008001E0FFF739
S31508000BB0F3FC012010BD128800F124018284002272
S31508000BC0C2840122EDE711684FF0FF32E9E770B5FC
S31508000BD016460C46054600F01BF8036893F8010113
S31508000BE0012806D0FF2C0FD8185D68B101202C709B
S31508000BF070BDD3F807013246214603F207130344B2
S31508000C002846BDE8704018474FF0FF3070BD000019
S31508000C1010B500F005F8001D10BD00BF656B00009B
S31508000C200048704750C00020814208BF704702F054
S31508000C30030332F0030205D050F804CB41F804CB85
S31508000C40121FF9D1002BD8BF704710F8012B5B1E75
S31508000C5001F8012B002BF8DC704701F0030231F094
S31508000C6003014FF0000303D040F8043B091FFBD1F2
S31508000C70002AD8BF704700F8013B521E002AFADC4A
S31508000C80704710B507480849084AFFF7CDFF0848D6
S31508000C900849094AFFF7C8FFBDE810400748084950
S31508000CA0DBE700000881000800A000200000000023
S31508000CB00881000800A000204401000044A100208B
S31508000CC0442B0000FFF7ACB910B5002000F0A9F8D6
S31508000CD03348016841F470010160324C01226260B8
S31508000CE03148016821F4027101603048016841F415
S31508000CF0FE6101602E48016841F00101016001684A
S31508000D0011F0020FFBD0DFF8ACC00023CCF800309E
S31508000D10016821F0A0610160016841F48031016039
S31508000D20016811F4003FFBD02168CCB22249112C8E
S31508000D300CBF40F2036440F203740C60204C1F4958
S31508000D402160016841F080710160016811F0007F3F
S31508000D50FBD041F20201CCF80010DFF868C04FF46E
S31508000D608011CCF800100CF104010B60091D0B6012
S31508000D70154B4FF08051196089131B1D19600168C6
S31508000D8021F0010101601148026010BD10B5FFF79E
S31508000D909BFF01F085F8BDE81040FFF772BF000021
S31508000DA088ED00E0002004E014ED00E0FCED00E032
S31508000DB00038024008380240003C0240083040042F
S31508000DC004380240303802404038024000380140BA
S31508000DD0EFF3108272B602607047016881F31088DB
S31508000DE07047EFF30581006809B14FF001007047BD
S31508000DF0016881F31088704772B670470168EFF38F
S31508000E00108281F3108800BF82F310887047EFF3D1
S31508000E101080EFF3058180F0010009B14FF0000062
S31508000E207047EFF3108072B680F001007047EFF359
S31508000E30108062B680F001007047EFF3108172B639
S31508000E4001607047016881F31088704770477047E2
S31508000E50144B154A596A1068D3F824C08C45F9D141
S31508000E60704730B583B0044600216846FFF7B0FFE7
S31508000E70FFF7EEFF05462046FFF7E9FF032894BF74
S31508000E800024C41EFFF7E4FF401BA042FAD96846B7
S31508000E90FFF7A3FF03B030BD00EB40004001401F41
S31508000EA000F022B900000140240C00408068406828
S31508000EB0704780688068704710B584B033496FF012
S31508000EC003006844884228BF314A03D340F80429FE
S31508000ED08842FBD2304C2F4860603048A06000F052
S31508000EE0A1FB2F482F490844A1680844A06001F0D7
S31508000EF0E3FF206000F073FC01F022FB00F074FCB5
S31508000F000020009001230322042127A000F028F9DD
S31508000F102BA32EA2304931A000F022F9364937A07A
S31508000F2000F01EF901A902A800F070FBDDE9011026
S31508000F30FFF7A5F938A006F013FC274937A006F0F5
S31508000F400FFC38A135A006F00BFC20A138A006F04E
S31508000F5007FC1BA136A006F003FC01214EF6602013
S31508000F6002F072F90121022002F066FA0121084610
S31508000F7002F068F901F086FE30A006F0F1FB38A011
S31508000F8006F0D2FB03F0FDF804B010BD00C0012046
S31508000F900DF0ADBA000000083CA000200881000052
S31508000FA000000000440100002E4E65744D46207670
S31508000FB025642E25642E25642E25640D0A0000005E
S31508000FC032303A35303A3531000000004465632046
S31508000FD03236203230313700C877000825732C2086
S31508000FE04275696C6420446174653A0D0A09257373
S31508000FF02025730D0A00000046374D0041524D204A
S31508001000436F6D70696C65722076657273696F6E71
S315080010102025640D0A0000000C000000252D31353E
S31508001020730D0A004275696C6420446174653A0060
S315080010302020252D3133730D0A0000000C6D6169DF
S315080010406E2065786974656421213F3F3F2E202014
S3150800105048616C74696E67204350550D0A0000009C
S315080010606D61696E2065786974656421213F3F3F2B
S315080010702E202048616C74696E67204350550D0A0E
S3150800108000000000002070470020704700207047CD
S3150800109010B501F0F9FCBDE8104003F072B8000085
S315080010A004B02DE9FF0F6846EFF30581FFF7F0BF9F
S315080010B081B000B52DE9FF5F6846EFF30381C16390
S315080010C0AFF3008010B582B0044600216846FFF7EA
S315080010D07FFE0021204601F0D7FC03F052F868464F
S315080010E0FFF77BFE02B010BD001FFDDCF7460000CF
S315080010F0034951F82020521E41F82020704700006D
S3150800110088A40020034951F820000028CCBF0120FC
S315080011100020704788A40020034951F82020521C5B
S3150800112041F820207047000088A4002010B582B03E
S31508001130044600216846FFF74BFE074A116841EA54
S3150800114004001060516800291CBF906888476846EB
S31508001150FFF743FE02B010BD98A0002004F024B8A3
S315080011600FB410B503A9029800F010F810BC5DF88A
S3150800117014FB04F0CFB804F07BB90FB410B504AA79
S31508001180039900F05DFA10BC5DF814FB03460348AA
S315080011900A461946406900F053BA000014A0002018
S315080011A02DE9FF4F89B00546014603F00F0B08AA43
S315080011B001A805F01FFC002800F09D810198C2686F
S315080011C080688168104688470490019803AE02AC8F
S315080011D0C1688068D0F808C00846E047234632460A
S315080011E0294606F055FA002868D00498DDE90AA7CA
S315080011F0816903984FF0010900EB800001EB80003C
S3150800120001688068691AB1FBF0F200FB12100590BC
S31508001210002803DA00200590FEF758FF0498039982
S315080012204069884240F29B810498042381690398A7
S3150800123000EB800001EB80040298216900EB400076
S3150800124003EB80000A582168A06802FB0012691A9D
S31508001250B1FBF0F605990792401A06900020059012
S315080012606068B04217D90698504534BF8046D046C4
S31508001270A06806900298226900EB4003082101EB5A
S3150800128083015158B1422BD2401C0290E168884232
S315080012901AD3FEF71BFFBAF1000F40F36081B9F1CC
S315080012A0000F00F05C810020029003980499401C0E
S315080012B0039049698842B7D300F051B92946AA482C
S315080012C006F032FA00F029B900EB40020420216941
S315080012D000EB8200A2680858216800FB02100790FC
S315080012E0BBF1000F18BFBBF1010F08D0BBF1020F0D
S315080012F04CD0BBF1030F00F0CF8000F0EAB8049899
S31508001300007810F0020F13D0BBF1000F06D042464A
S3150800131029463846FEF724FF00F0DBB80B9841460D
S315080013200268284600F01EFF0B99086000F0D1B845
S31508001330BBF1000F05D1404606F01FFA070000F082
S31508001340EC80019829464246D0F80C9080683B46C6
S31508001350D0F80CC04846E0475FEA000903D0BBF165
S31508001360000F07D0B5E0BBF1000F04BF384606F002
S3150800137002FAAEE00B9841460268384600F0F2FEE3
S315080013800B990860384606F0F6F9A2E02946019856
S3150800139002F028FA002804BF0DB0BDE8F08F2169D5
S315080013A0029800EB400051F82010704888430FD08F
S315080013B0A268206806FB02094D4523D101984946D3
S315080013C0D0F80CC08068036A60469847D0B912E026
S315080013D0079885422CD166480068002818BF06F091
S315080013E0CAF900206249486040F60C1006F0C5F9B3
S315080013F05F4908603AE001984946C3688068426ACE
S3150800140018469047019800210091D0F80C90806802
S3150800141042463B46D0F810C029464846E0475FEAB0
S31508001420000956D14246294652A006F07DF950E0F9
S315080014304F490A984A68104440F60C12904215D94A
S3150800144006F09BF90090002804BF0DB0BDE8F08FA8
S315080014504748426801680098FEF782FE44480068DB
S3150800146006F089F942490098086006E04048006895
S31508001470002804BF0DB0BDE8F08F3D480A9A016800
S31508001480406808443946FEF76BFE394841680A98B1
S315080014900144374841601CE02946019802F0A2F948
S315080014A0002804BF0DB0BDE8F08F2169029800EB53
S315080014B0400051F820102D4888430AD00198A268A8
S315080014C02168C368806806FB0211426A184690477D
S315080014D08146AAEB080ABAF1000F40DDB9F1000F00
S315080014E03DD0002F18BF474445446068761CB0427B
S315080014F03FF6B9AED7E60A9829182A48D0E9063041
S3150800150018449D4228BFA84201D9814209D90090B2
S31508001510294625A00A9A06F007F90DB00020BDE86D
S31508001520F08FBBF1000F1AD0BBF1010F04BF29469B
S31508001530DDE90A200AD0BBF1020F04BF2846DDE91F
S315080015400A2103D0BBF1030F03D008E0FEF708FE1B
S3150800155005E00A9919B1FF222846FEF788FE0DB064
S315080015600120BDE8F08F0000647F0008304001408C
S3150800157058A00020204661696C656420577269741A
S3150800158065536563746F72206174206C6F63617450
S31508001590696F6E2025782C2073697A652025782056
S315080015A00D0A000014A0002020496E76616C69645B
S315080015B0206164647265737320257820616E6420E7
S315080015C072616E67652025782052616D20537461BB
S315080015D072742025782C2052616D20656E64202552
S315080015E0780D0A0010B582B0044600216846FFF758
S315080015F0EFFB05490A6822EA040008606846FFF717
S31508001600ECFB02B010BD000098A00020034A02605F
S315080016100348801A001D08607047000000D00020AB
S31508001620F87F012070470020704703F054B901463F
S3150800163011F8012B002AFBD1081A401E704700003A
S3150800164070B51346ADF5007D04460A464FF40071A1
S31508001650684600F0C2F804F47F410546B1F5407FBC
S315080016600FD006DCB1F5807F18BFB1F5007F1FD11A
S3150800167007E06E46B1F5A06F11D0B1F5C06F06D080
S3150800168016E002466946204600F029FD10E00A48A1
S31508001690016869B1002070553046884708E0002483
S315080016A0002D05DD305D01F07FFD641CA542F9DCE7
S315080016B00DF5007D284670BD54A000207047704780
S315080016C0002070470020704703F026B92DE9F04145
S315080016D090460D46060001D0042D01DBFEF7F6FC08
S315080016E006EB8504206908B1A06A08B1FEF7EEFC8E
S315080016F02369186800F1010CBCF1080F08BF4FF008
S31508001700000C01219A68002A18BF00270AD0206910
S31508001710A9408068C8F800007079FFF786FF384648
S31508001720BDE8F0815A68624508BF996000EB001071
S3150800173003EB800000F10C07C3F800C0E7E770B5BB
S3150800174016460C46050001D0042C01DBFEF7BEFC4C
S3150800175005EB8404206900281ABFA06A0028FEF752
S31508001760B5FCAEB100202169D1E900239A4202BF37
S315080017708A68002A70BD03F10102082A08BF002200
S31508001780C1E9012003EB031001EB80000C3070BDAA
S315080017902069D0E900218A4207BF8268002A01EB46
S315080017A0011100EB810008BF0020EFD170BD0028B1
S315080017B019BF002A00290120704710B594465C1C01
S315080017C00022A1423EBF0270012010BDC2541A4633
S315080017D06146FEF79DFD002010BDFEF77BBC10B5E7
S315080017E000F0D2FD012010BD00B583B005F088F9E0
S315080017F004F002FE002001900090694601A800F05E
S315080018004BFCDDE9001001F06BFB00F051F900F02C
S3150800181009FB00F05DFD00F059FB0020FFF707FB10
S3150800182005F052F801F012FD05F07CF8FFF747FFC6
S3150800183005F078FCFFF742FF05F075FC00F01CF890
S3150800184000F015F800F040FB00F0B2FF00F0C8F910
S3150800185000F024FB00F01EFC00F0FAFE00F07DFC10
S3150800186000F007F803B05DF804EB01F09EBC002019
S3150800187070474FF04A4070470120704702F00EBD8E
S3150800188030B4C0680024002804BF30BC70474388C1
S3150800189003EB000C0378022B0BD003DC33B1012BCE
S315080018A007D003E0032B09D0FF2B0FD030BC002054
S315080018B070478B4204BF30BC704719E08B4217D182
S315080018C043789578AB4213D130BC704703791578C5
S315080018D0AB420DD143795578AB4209D1C3885588B7
S315080018E0AB4205D103899588AB4204BF30BC70472B
S315080018F0002C08BF6046CAD030BC704702F0F8BC5E
S3150800190002F06ABD10B40A22A0FB023401FB0241B0
S315080019104FF0000C00FB0C1110BC1846704700B5C0
S3150800192083B04FF0000CCDF800C0CDF804C000F02D
S3150800193002F803B000BD2DE9F05F0546ADF5825DFE
S315080019400DF580500026D0E91AA8D018144605EBE4
S31508001950010B03903046202206A90A54401CB0F514
S31508001960805FFADB5D456FD27DD2B8F1000F05D0F6
S3150800197028466D1C04AA0121C04703E015F8010B8F
S315080019808DF810000020019084E00198012101FAE9
S3150800199000F09DF8101008420AD15D4563D2B8F1EF
S315080019A0000F10D06F1C6A4601212846C0470FE079
S315080019B0AB4558D9B8F1000F48D028466D1C02AA85
S315080019C00121C04746E015F8010B8DF800002F46A7
S315080019D05F4548D2B8F1000F05D07D1C05AA012144
S315080019E03846C04703E038788DF814007D1C9DF80A
S315080019F0140000F00F01CF1C9DF800104FEA1010DC
S31508001A0001EB0020C0F30B0000F110093DD0C9F32B
S31508001A100B0006A9C6F30B02085C8DF80000885473
S31508001A2003998C421FD2BAF1000F08BF04F8010BC4
S31508001A3004D02046641C6A460121D047761C7F1EC6
S31508001A4009F10109E3D120E02BE00CE015F8010BC0
S31508001A508DF80800C6F30B0206A99DF808008854FD
S31508001A6003998C4205D30DF5825D4FF0FF30BDE832
S31508001A70F09FBAF1000F08BF04F8010B04D0204606
S31508001A80641C02AA0121D047761C0198401C0190CB
S31508001A90082803DA03988442FFF477AF5D45FFF41C
S31508001AA063AF0DF5825D4FF00100BDE8F09F0000C1
S31508001AB0014802F0CFBB000018C0002010B5012075
S31508001AC0FFF72AFB0220FFF727FB0B494FF6FD70AD
S31508001AD00880FFF7BDF9094AD2E90032C01A71EB4E
S31508001AE0020028BF04F052FC0220FFF701FBBDE804
S31508001AF010400120FFF7FCBA100C004060A000203F
S31508001B00F0B583B00C460546174600216846FFF730
S31508001B105FF90026002C18BF00240FD005EB8400BF
S31508001B20016941B1806A30B90E604E608E60214607
S31508001B30284600F025F8641C042CEFDB002F18BF9C
S31508001B4000210ED005EB81031A69002A1CBF986A8A
S31508001B50002802D016605660966001F1010104293A
S31508001B60F0DB6846FFF739F903B0F0BD02F0A4BC14
S31508001B70002814BF0020014870470000E4A4002094
S31508001B8070B582B00C46050005D005EB84000169E6
S31508001B9009B1806A10B102B0002070BD4FF0A046AE
S31508001BA000216846FFF714F906EB4412D2F8000B39
S31508001BB010F0004F0CD1281990F8240040F40020AA
S31508001BC0C2F8100BD2F8000B40F00440C2F8000B24
S31508001BD06846FFF702F902B0012070BD0120704780
S31508001BE07047000070B505460120FFF795FA0220F8
S31508001BF0FFF792FA224905EB450001EB001420464F
S31508001C0004F03AFC012000FA05F31E4D2B6094F807
S31508001C10200000F0CFFD064628681842F6D1636A10
S31508001C2033B394F8220050B1FFF712F9164A126836
S31508001C30821841F10003204604F064FB18E094F88A
S31508001C40231094F82000A26A984794F821000328E4
S31508001C500ED194F82300B04204BF80F0010084F846
S31508001C60230005D0636A94F820003146A26A984793
S31508001C700220FFF73DFABDE870400120FFF738BAA9
S31508001C8048A10020143C014000A0002010B582B0F5
S31508001C90DDE9044CCDE9004C03F0EAF802B010BDCA
S31508001CA070B5044690F84750B0F86400854228BFDE
S31508001CB005462A46216E206CFEF752FA84F84450EF
S31508001CC0206E002128442066B4F86400401BA4F85E
S31508001CD0640094F84700A84218BFA4F866100BD110
S31508001CE0B4F86600401B0004000CA4F866001EBF8A
S31508001CF0AFF25300E06570BDE16570BD30B51546BD
S31508001D000C4600220221FFF7BBFD002808BF30BDA4
S31508001D1000F10D0241880144206878B1904288BFDD
S31508001D2081422ED92B68934228BF994229D94278F5
S31508001D30052A04BF0278072A23D10FE04FF00000D6
S31508001D4022602860206888421BD24378042B0ED074
S31508001D50052B04BF0078072815D00CE05A78042A0A
S31508001D6001BF1A78092AC01D20600AD1EBE702785C
S31508001D70092A08BF28602068027810442060884233
S31508001D80E3D3002030BD012030BD02F0D1BB70473F
S31508001D9010B44FF0FF3C019C0328C4F800C0C3F8F8
S31508001DA000C0C2F800C0C1F800C024BF10BC70470C
S31508001DB0DFF820C01CF800C0C1F800C00649095C5D
S31508001DC011600649095C19600549085C206010BC69
S31508001DD070470000887800088B7800088E7800081D
S31508001DE09178000800F47F4310B54FF0000CC0B29C
S31508001DF0B3F5807F06D0B3F5007F07D0B3F5407FF3
S31508001E0009D00CE0401EFFF7A9F902E0401E02F0D7
S31508001E10B9F9844603E0401EFFF705FC8446604690
S31508001E2010BD0000034900200860486002490860A8
S31508001E300120704718C1002098A0002001490968B0
S31508001E400840704798A0002010B50446007994F819
S31508001E504610884208BF10BD052804D10122114644
S31508001E602046FFF74DFE94F846002071072811D248
S31508001E70DFE800F004080808080908000020A4F8AC
S31508001E806400E06510BD20460022BDE8104001212F
S31508001E90FFF736BEBDE81040FEF718B901207047B7
S31508001EA0084810B5016841F007010160002108469D
S31508001EB000F0AAFC0023BDE810401A460121184686
S31508001EC001F052BA3038024005F076B80120704762
S31508001ED00048704740420F0000281CBF0120704789
S31508001EE02DE9F04F8346664885B0016841F08001C8
S31508001EF00160644C4FF0A04500216846FEF768FF74
S31508001F000220C5F804088020A8605F48E8604FF4FE
S31508001F101020A863D5F8000840F00300C5F80008AB
S31508001F20A86B40F40010A8634FF0010904F1A8005B
S31508001F30C4F8B4906065042084F858000022494625
S31508001F402046FFF79DFC002814BFC07A082084F8B5
S31508001F50470094F8581001204FF000080129C8BF1F
S31508001F6040210BDD04EB8002C2F828802218401CB1
S31508001F7082F8241094F858208242F3DC002637466B
S31508001F80CDF8088003AA02A92046CDF80C80FFF7F1
S31508001F90B5FE002818BFDFF8F4A069D0029894F8B7
S31508001FA05820807800F07F018A4261DD039A927892
S31508001FB0032A5DD810F0800F1CBF04EB8100C0F81F
S31508001FC0289002988088082818BF102803D020284F
S31508001FD018BF40284CD104EB010282F824004FF0C8
S31508001FE08B0007FB00F00AEB800004EB8102C0F8C7
S31508001FF00080C0F80480C0F808801061029807F1D4
S315080020000107C07800F0030001282AD0490088405B
S31508002010064303AA02A92046FFF770FE0028BDD191
S3150800202036B3A4F8B0604FF47A70FEF71AFF0021B1
S31508002030584600F0DBF900221549432001F0BCFBA5
S31508002040002213492A2001F0B7FB4FF0FF306861E0
S315080020504FF48050A861C5F83488A86840F001009C
S31508002060A8606846FEF7B9FE05B00020BDE8F08F07
S315080020706846FEF7B2FE05B00120BDE8F08F000005
S3150800208034380240E4A40020400C00409CA50020FF
S315080020901D3F000801207047034A02600348801A62
S315080020A0001D08607047000050810120F8BF01201C
S315080020B000F47F41C0B2B1F5807F0AD0B1F5007F48
S315080020C00AD0B1F5407F1CBF00207047401EFFF7BD
S315080020D0F7BA401EFFF74DB8401E02F0B6B82DE914
S315080020E0F0471746884600F47F444FF000096426F7
S315080020F0C5B22CE0B4F5807F06D0B4F5007F09D0D0
S31508002100B4F5407F0CD013E0681E3A464146FFF707
S3150800211032F80AE0681E3A46414602F098F804E0AA
S31508002120681E3A464146FFF7CDFA002812DB0AD167
S315080021304FF00000FEF76BFE60B10021012220205F
S3150800214000F058FC03E032263F1A804481440FB160
S31508002150761ECFD24846BDE8F0874FF04A40704712
S31508002160012070474B1E0029C8BF08490CDD10F82E
S3150800217001CB8CEA126C51F82CC08CEA0222B3F11E
S31508002180000CA3F10103F2DC10467047AC78000896
S31508002190002808BF704770B550F8041C1B4DA0F105
S315080021A01404A94205D01AA0A268FEF7D9FFFEF7C3
S315080021B07FFFA268201F1158A94204D024A0FEF769
S315080021C0CFFFFEF775FF3249E160206858B1C26853
S315080021D08A4208D1A26883681A44A260006820600F
S315080021E0002818BF44606068002808BF70BDC26830
S315080021F08A4218BF70BD8168A2681144816021684F
S315080022000160002918BF486070BD00000DF0B1BA22
S3150800221053696D706C65486561705F52656C656180
S3150800222073653A204D656D6F727920626C6F636BCA
S31508002230206865616420636F7272757074696F6E69
S315080022403A202530387820253038780D0A000000E5
S3150800225053696D706C65486561705F52656C656140
S3150800226073653A204D656D6F727920626C6F636B8A
S31508002270207461696C20636F7272757074696F6E11
S315080022803A202530387820253038780D0A000000A5
S31508002290EFBEADDE02F076BE302828BF704738B5EF
S315080022A08C46114603F00F020446012A08BF032193
S315080022B002D0002A18BF0221624601F055F8002014
S315080022C00346024601460090204601F0CDFA38BD85
S315080022D02DE9F0411420002100F07EFA00201F4964
S315080022E0054621F81050401C0328FADB00241C4E32
S315080022F0012704EB440006EB00101A490022876107
S3150800230004F008FC641C102CF3DB17480560002257
S315080023101649062001F050FA00221549072001F057
S315080023204BFA00221349082001F046FA0022124906
S31508002330092001F041FA002210490A2001F03CFA6E
S3150800234000220F49172001F037FA00220D492820EC
S3150800235001F032FA0120BDE8F081000004A0002057
S3150800236048A10020F33A0008003C01401933000850
S315080023701F330008253300082B33000831330008C3
S3150800238039330008753400084FF0E0214FF0FF306C
S31508002390C1F88001C1F88401C1F88801C1F880023A
S315080023A0C1F88402C1F888020C480B498160C160F3
S315080023B0016141618161C16201638163C163BFF3E8
S315080023C05F8F084A06491160111F086006480168B0
S315080023D041F4E02101607047A11000080080012047
S315080023E00007FA050CED00E024ED00E02DE9F041C8
S315080023F0314C82B08846B4F8B000002804BF02B059
S31508002400BDE8F0814FF0A04500216846FEF7E0FCE4
S3150800241000260127D4F8B400B8F1000F29D0002807
S3150800242042D1C4F8B470D5F8040840F00200C5F8E3
S31508002430040894F858000125012814DD04EB8500EA
S31508002440016900291CBF806A002807D04FF00102E5
S3150800245029462046FFF773F90028F7D194F8580063
S315080024606D1CA842EADC84F846602046FFF7ECFCBF
S315080024701AE0C8B1C4F8B460A22600223346114651
S315080024800B20FFF709FF0022334611460C20FFF701
S3150800249003FFD5F8040820F00200C5F8040884F8FC
S315080024A046702046FFF7D0FC6846FEF796FC02B059
S315080024B00120BDE8F0810000E4A4002070B582B0D8
S315080024C00D4604001CBF94F85800A842DEBF002041
S315080024D002B070BD4FF0A04600216846FEF778FCB2
S315080024E004EB8500016900291CBF806A002813D007
S315080024F0606D10F8150010F0010F13D04FF00102AF
S3150800250029462046FFF71BF90028F7D16846FEF74B
S3150800251064FC02B0012070BD6846FEF75EFC02B09E
S31508002520002070BD6846FEF75CFC18B121463046AF
S3150800253001F077FB2A462146304601F0FCFAE5E72A
S3150800254026484FF0FF310A0CC0E9001224480168FA
S3150800255041F008010160001D016841F001010160B8
S315080025602048816841F008018160DFF87CC00422B8
S31508002570ACF800200CF10401202008801B4800213B
S3150800258001801B4B022018801A480180001D01801B
S31508002590194B5F20188019480160481E1B1D1860DA
S315080025A01748012303801748028081800722028189
S315080025B0818101854FF6FF71C1628382018841F0EE
S315080025C001010180BCF8000040F00100ACF80000F1
S315080025D000220D49322001F0EFB8000060A000206B
S315080025E040380240002004E0000C0040080C00407F
S315080025F00C0C0040180C0040280C0040340C00401D
S31508002600140C004000000140BD1A000830B583B024
S3150800261004460D4600216846FEF7DAFB0948C0E97C
S31508002620004509480460FEF713FC001B71EB050022
S3150800263002D30649022008806846FEF7CEFB03B09F
S3150800264030BD000060A00020340C0040140C00408F
S315080026504FF07740704700001A4910B51B300A68DA
S3150800266020F00301002A18BF174825D0D3688342F3
S315080026701FD193688B421CD301F1280083420DD9E0
S3150800268010461A18521A0368C2E900300260002B75
S3150800269018BF5A60916083685B1A836062B10B4801
S315080026A0D0600B4810619168131FC85002F11400DE
S315080026B010BD1268002AD9D106A0FEF751FD0020E8
S315080026C010BD000094A00020EFBEADDE5EBEADDEFC
S315080026D00DF0B1BA202020204D656D6F72793A2031
S315080026E04F55544F464D454D4F525921212025648B
S315080026F00D0A000090F84410002904BF0220704714
S31508002700016C4A780A2A13D2DFE802F00507120993
S31508002710120B12120D0F00F00DB800F049BD00F0B3
S315080027204BBA00F023BA01F051B9012201F06AB997
S3150800273001F04EBC81B00022ADF800204A88002A7C
S3150800274004BFCA88022A24D190F84630032B20D029
S315080027500A7812F00F0208BF00F150011CD0012AB6
S3150800276002D0022A05D014E0052B08BF694610D10D
S3150800277012E0042B01D18A885AB90A7902F07F023D
S315080027808A8090F858108A423CBF416D01EB42019D
S3150800279002D3012001B0704701660221A0F8641037
S315080027A00249C165002001B070470000A11C00085D
S315080027B001207047302824BF002070470109054AC8
S315080027C002EB8121096900F00F0021FA00F000F000
S315080027D001007047000002400022134610B5121A85
S315080027E073EB01020BDA42F21072821A71F10001E0
S315080027F005DA00F042FD03490860012010BD0020FB
S3150800280010BD000000A00020302828BF704702092C
S3150800281000F00F00054B03EB8222012303FA00F0B8
S3150800282080B2002914BF108350837047000002400D
S315080028300228B2BF032A002070472DE9F04788B066
S315080028408A46DDE9108605461F469146002102A8FC
S31508002850FEF7BEFA514850F82540FDB150480168C8
S315080028604FF48032AA40114301604E4800EB6A00DB
S31508002870B0FBFAF020810C21B9F1000F07D07F1CBC
S3150800288040F20C41B9F1010F08BF41F40071092F5C
S315080028900CBF41F48051082F07D054E04248016824
S315080028A041F0100101604148E0E7A181B8F1010F4C
S315080028B008BF4FF000084FF6FF7000EA0830208284
S315080028C0002016F0040F18BF4FF4007016F0020F20
S315080028D018BF40F48070A08206A8009005AB04AA31
S315080028E001A92846FFF754FA72230022022101980B
S315080028F0FFF7D2FC7223012200210498FFF7CCFCD3
S3150800290016F0040F08D00598B0F1FF3F1BD000223F
S3150800291072231146FFF7C0FC16F0020F08D006987E
S31508002920B0F1FF3F0FD0722301220021FFF7B4FC5C
S315080029300021284600F0AAFA062D24D2DFE805F081
S315080029400A0E12161A1E02A8FEF747FA08B0002049
S31508002950BDE8F08700221649252012E00022154915
S3150800296026200EE00022144927200AE000221349F7
S31508002970342006E000221249352002E000221149DF
S31508002980472000F019FFA08940F40050A08102A852
S31508002990FEF723FA08B00120BDE8F087947800080E
S315080029A040380240006CDC024438024000D8B805C2
S315080029B0A5340008D934000811350008493500083F
S315080029C081350008B535000810B504462A2001F0FF
S315080029D083F8432001F080F801212046FFF706FD21
S315080029E00348016821F080010160002010BD000045
S315080029F0343802402DE9F043814685B00F4610462B
S31508002A0000F03BFC04460D46002102A8FEF7E0F95B
S31508002A10FEF71EFA04194D4101264FF00008384604
S31508002A20FFF70CFA38B1044602A8FEF7D6F905B046
S31508002A302046BDE8F083FEF70BFA001B71EB050094
S31508002A4006D302A8FEF7C9F905B00020BDE8F08351
S31508002A501EB10220FEF756FB58B1CDE900780126D3
S31508002A604A462046294603F0D1FC02A8FEF7C6F9D5
S31508002A70D5E702A8FEF7BCF904F052F8064602A804
S31508002A80FEF7BAF9CBE7000030B583B00546002259
S31508002A900120CDE900020C4608234FF4E131104627
S31508002AA0FFF7F4F824B1214611A000F0D1F802E0AE
S31508002AB014A000F0CDF816A0E96B00F0C9F818A02C
S31508002AC0A96B00F0C5F81AA0696B00F0C1F805F10A
S31508002AD040011BA000F0BCF80024214655F824202C
S31508002AE01BA000F0B5F8641C0C2CF6DD03B030BD55
S31508002AF0455843455054494F4E2030782530327852
S31508002B003A0D0A004552524F523A0D0A000000008B
S31508002B102020637073723D3078253038780D0A00AE
S31508002B202020706320203D3078253038780D0A0043
S31508002B3020206C7220203D3078253038780D0A0028
S31508002B402020737020203D3078253038780D0A0013
S31508002B5020207225303264203D3078253038780DB3
S31508002B600A000000FEF7CEBE0120704710B50446E5
S31508002B7048887F289CBF8A88002A04BFC9880029FC
S31508002B8003D194F84610052901D3012010BD10F091
S31508002B90FF0084F845000CBF0320042084F8460093
S31508002BA02046FFF751F90020A4F864000148E065C3
S31508002BB0032010BDA11C000810B50446C88888BBB0
S31508002BC094F84620032A2DD0087810F00F0005D077
S31508002BD0012808BF10BD022815D023E0488801281F
S31508002BE020D10A4602212046FEF74AFED0B1C07A15
S31508002BF010F0200F05D0B4F8500040F00200A4F8F9
S31508002C00500006201BE0042A01D1888850B90879AB
S31508002C1010F07F0088801CBF94F85820824201D9A2
S31508002C204A880AB1012010BD626D32F8103043F0AF
S31508002C30010322F81030087984F85900042000218D
S31508002C40A4F864100149E16510BD0000A11C000844
S31508002C500FB4FF2110B5C0B043AB6846429AFEF7E1
S31508002C60BCFD04460020FEF784FA22466946002089
S31508002C70FEF781FA0020FEF77CFA40B010BC5DF83A
S31508002C8014FB00002DE9F04188B044F6206002905C
S31508002C9003A906A8FEF7BAFC0399069800F020F9DE
S31508002CA0544C5548616802F003FD02A9534804F0E4
S31508002CB0E5FB002818BF012020B902A800F0B0FBE8
S31508002CC000286FD001F0C0FA00250126CDE900657D
S31508002CD0032304224AA140F20150FEF74EFA4FA000
S31508002CE0009051A3534A54A140F20150FEF745FA09
S31508002CF0606800F0D3FA00221146104600F076FC10
S31508002D00E068FFF7D5F90123032204213CA00095CA
S31508002D10FEF726FA41A344A246494EA0FEF720FA3A
S31508002D20524953A0FEF71CFAE068FFF7C1F904A858
S31508002D30DFF8C4800090082301220021049608F5D4
S31508002D40016003F0C5FAFEF783F806460F468521AB
S31508002D502020029AFFF74EFE040018BFFEF742FC39
S31508002D6014F0800F04D0002202A9012000F03EFCD6
S31508002D7014F0050F1CBF204802F08AFED8F8040894
S31508002D8010F0020F1CD020F00200C8F80408002238
S31508002D9002A9022000F02AFCFEF75AF806460F465A
S31508002DA0D5E7FFE7144803F019F8002804BF4FF0E9
S31508002DB0FF30029086D001F0E7F908B0BDE8F0814F
S31508002DC00298B0F1FF3FC2D000F057FA04460D460C
S31508002DD0FEF73EF8801B61EB0701201A75EB010030
S31508002DE0B5D200221146072000F000FC024802F086
S31508002DF0F5FFACE714A0002098B6002060C30020B9
S31508002E0054696E79426F6F746572207625642E2533
S31508002E10642E25642E25640D0A00000032303A35EA
S31508002E20303A3433000000004465632032362032DD
S31508002E3030313700C87700082573204275696C64FD
S31508002E4020446174653A0D0A0925732025730D0A15
S31508002E50000000002573204275696C642044617483
S31508002E60653A2025732025730D0A000046374D0064
S31508002E7041524D20436F6D70696C6572207665729C
S31508002E8073696F6E2025640D0A00000000B50346BD
S31508002E9041B1002101F04CF9002118465DF804EB18
S31508002EA001F060B9012101F05DF9012118465DF8CC
S31508002EB004EB01F03DB9000070B50022064D074C41
S31508002EC020211046FFF74EF9024621462846BDE85E
S31508002ED07040FFF747B9000000A00020000000007E
S31508002EE0074A106081601168002008601168486010
S31508002EF011680448C86011680348086170470000F3
S31508002F0094A00020EFBEADDE0DF0B1BA2DE9F00FAA
S31508002F1000278BB001463E4638463A463B46E846C9
S31508002F2008F80230521C1F2AFADB0022FF230DF193
S31508002F30200B0BF80230521C0A2AFADB00280FBFB6
S31508002F404FF001090BB0BDE8F00F70474B880A78BF
S31508002F5003EB010A022A39D003DC82B1012A16D012
S31508002F6005E0032A00F0C880FF2A00F0D180172068
S31508002F7051460028EAD00BB0BDE8F00F704737423B
S31508002F800FBF01200BB0BDE8F00F7047F0E7002F28
S31508002F9018BF0220ECD1162B06BF0A79122A032085
S31508002FA0E6D14A79012A18BF0420E1D1CA7A082A4B
S31508002FB018BF102A04D0202A1CBF402A0520D7D1C2
S31508002FC0497D012914BF06200127D1E7002E18BF25
S31508002FD00720CDD10A79092A70D1CA88121D9342D1
S31508002FE06CD14A79022A18BF0920C1D10A7A002A67
S31508002FF008BF0A20BCD04B7A012B88BF0B20B7D854
S31508003000CB7A03F08F03802B18BF0C20B0D1521E49
S31508003010D5B20D314A78042A01D00E20A8E70A78DD
S31508003020092A01D00D20A3E7CA780AB10F209FE725
S315080030300B79002B18BF002210D01BF802C0BCF178
S31508003040FF0F07D00A2A07DA8C78A44518BF521C46
S31508003050F3D11A200A2A03DB1B2089E7102087E709
S3150800306011F802CF0BF802C00A7AC91D052A05D045
S3150800307091F800C061444A78052AF9D15A1ED2B29D
S3150800308005D22CE04B78052B01D0122070E70B787F
S31508003090072B01D011206BE78B7803F07F0CACF17E
S315080030A001031F2B01D3182062E7CB7813F0030F17
S315080030B002D013F0C00F02D0132059E71AE00CEB28
S315080030C0080313F801CCBCF1000F01D019204FE713
S315080030D0521E03F8019CD2B201F10701D2D2002890
S315080030E07FF446AF6B1EDDB294D2514508BF012668
S315080030F03FF43EAF08203BE70A79121D934218BFFA
S3150800310014207FF435AF4979032918BF15202FE716
S31508003110097911F0800F08BF162029E710B582B08B
S31508003120044600216846FDF753FE1C49002051F865
S3150800313024108881062C11D2DFE804F0030507095C
S315080031400B0D252008E0262006E0272004E0342081
S3150800315002E0352000E0472000F0BEFC01212046B1
S31508003160FFF794FE0E48052C12D0002C04BF016808
S3150800317021F0100105D00B4801684FF48032A240B7
S31508003180914301606846FDF728FE02B0012010BD94
S31508003190016821F020010160F4E700009478000836
S315080031A0443802404038024070474FF04A40704762
S315080031B010B50446C888002804BF94F846000528B8
S315080031C02BD1087810F00F0005D0012808BF10BDD4
S315080031D0022817D021E0488801281ED10A46022174
S315080031E02046FEF74DFB00281CBFC07A10F0200FC2
S315080031F013D0B4F8500020F00200A4F850004FF0A5
S31508003200060017E0087910F07F0088801CBF94F844
S315080032105820904201D24A880AB1012010BD626D39
S3150800322032F8103023F0010322F81030087984F8B8
S31508003230590004200021A4F864100149E16510BD75
S31508003240A11C000800207047002070470023024A8E
S315080032500249034803F01CBCDCA00020A8A00020FB
S3150800326040C0002000B583B0DDF810C0CDE9003CB1
S31508003270002300F0E5F803B000BD4FF47A71A0FB17
S3150800328001017047044951F82000008810F08000B9
S3150800329018BF0120704700009478000830B500F484
S315080032A07F4183B0C4B2B1F5807F06D0B1F5007F07
S315080032B010D0B1F5407F26D013E000210120CDE9DA
S315080032C000011448082300220169601EFEF7DEFC8F
S315080032D003B030BDC0F3421000210546FEF7F4F9ED
S315080032E010B103B0002030BD2846FEF707FB0028C2
S315080032F004BF03B030BD601E03B00222BDE83040F3
S315080033000121FEF7FDBA03B0601EBDE83040FEF7A6
S3150800331027BF000014A000200020FEF763BC012090
S31508003320FEF760BC0220FEF75DBC0320FEF75ABC20
S315080033300420FEF757BC000070B509480068094923
S3150800334009680525084000F47870440914F0010F4F
S315080033501CBF2846FEF746FC6D1C6408F6D170BDF6
S31508003360143C0140003C01402DE9FF4F1F46DFF8A1
S31508003370A8C003090CEB832400F00F0C012000FA07
S315080033800CF84FEA4C00032303FA00F5002683B035
S31508003390022A08BF012602D0012A08BF022606FA19
S315080033A000F281400491390A01FA00F94FEA4C709B
S315080033B0C00E0F2101FA00F6C7F3031101FA00FB4C
S315080033C002924FEADC0A00216846FDF701FD2068F3
S315080033D00499A84308432060E068029AA84310436A
S315080033E0E060A068A84340EA0900A06004EB8A00F0
S315080033F0016AB14341EA0B010162606817F0010FE7
S3150800340014BF40EA080020EA080060606846FDF735
S31508003410E4FC07B0BDE8F08F0000024001F0E2BD11
S3150800342070B5054600244A20FFF7C4F910B1601E9E
S3150800343001242860204670BD0020704703F0EEBDC9
S31508003440302824BF002070472DE9F84390461F46D0
S31508003450DDE908620D46002304461946FFF784FF96
S3150800346033463A4641462046009500F0FDF9BDE848
S31508003470F883704770B509480068094909680A253C
S31508003480084000F47C40840A14F0010F1CBF28464B
S31508003490FEF7A8FB6D1C6408F6D170BD143C01400C
S315080034A0003C014070B50B4D2888AA8900EA020441
S315080034B014F0200F03D02946002000F0D4FA14F0A7
S315080034C0800F08BF70BD2946BDE87040002000F097
S315080034D0E0BA00000010014070B50B4D28880B4A71
S315080034E0128800EA020414F0200F03D029460120AE
S315080034F000F0B9FA14F0800F08BF70BD2946BDE880
S315080035007040012000F0C5BA004400400C44004059
S3150800351070B50B4D28880B4A128800EA020414F08D
S31508003520200F03D02946022000F09DFA14F0800FE0
S3150800353008BF70BD2946BDE87040022000F0A9BA50
S31508003540004800400C48004070B50B4D28880B4ACF
S31508003550128800EA020414F0200F03D0294603203B
S3150800356000F081FA14F0800F08BF70BD2946BDE847
S315080035707040032000F08DBA004C00400C4C00400F
S3150800358070B50B4D2888AA8900EA020414F0200FAA
S3150800359003D02946042000F066FA14F0800F08BF0D
S315080035A070BD2946BDE87040042000F072BA0000DC
S315080035B00050004070B50B4D28880B4A128800EA67
S315080035C0020414F0200F03D02946052000F04BFA18
S315080035D014F0800F08BF70BD2946BDE8704005206D
S315080035E000F057BA001401400C14014070B5154696
S315080035F00C46092828BF70BDDFE800F005170C182F
S3150800360020283217480028A1BDE8704040F2015032
S31508003610FDF7B3BD002C1ABF2068B0F1FF3F70BD9F
S3150800362044F620618842B8BF216070BD2246BDE8D5
S31508003630704020A140F20150FDF79FBD2246BDE82B
S3150800364070401FA140F20150FDF797BD1FA140F23F
S315080036500150FDF792FDBDE870401CA0FDF780BD46
S3150800366034B11EA140F20150FDF787FD1BA005E00D
S315080036701FA140F20150FDF780FD1DA0FDF770FD6A
S315080036802048C068BDE87040FEF712BD002C08BF90
S3150800369070BD22461CA140F20150FDF76EFD44F0B4
S315080036A00100286070BD000057616974696E670D76
S315080036B00000000057723A203078253038780D001F
S315080036C045723A203078253038780D0043686B20EB
S315080036D07369676E6174757265200D005369676E4C
S315080036E0617475726520504153530D0A0D0A000026
S315080036F05369676E6174757265204641494C0D0AB7
S315080037000D0A000014A000205374617274696E6774
S31508003710206170706C69636174696F6E20617420D2
S315080037203078253038780D0A0000000000207047F0
S3150800373010B500F47F420446C1B2B2F5807F0CD0C2
S31508003740B2F5007F0ED0B2F5407F1CBF002010BD39
S31508003750481EBDE81040FFF707BABDE81040481EEE
S31508003760FEF798BD481EFEF701FAC4F34210BDE8FD
S315080037701040FEF70ABB000010B5044684B008A046
S31508003780FDF755FF06A10022CDE90021029001238D
S3150800379003220421204602F051FD04B0012010BD89
S315080037A053544D3332463431314E55434C454F20F0
S315080037B0627920564D480000094A02EB80021164DE
S315080037C0BFF35F8F00F01F0201219140400980007E
S315080037D000F1E020C0F88012C0F8001101207047FF
S315080037E0008001202DE9F04104460E46D4E9021076
S315080037F082B0D1F808C00025E84601AFE0473B464D
S315080038004246314603F044FFB0B1D4E90210896854
S31508003810884781690098102200EB800002EB80003F
S315080038200958019800EB400011F8200010280ABF3B
S3150800383003A00125FDF794FC284602B0BDE8F081F7
S31508003840547279696E6720746F207772697465207F
S31508003850746F20626F6F747374726170207265671B
S31508003860696F6E0D0A0000002DE9FF4F8A4607466C
S3150800387000F00F00012101FA00F48107090F0F2259
S3150800388002FA01F93A0902FA01F84B4900EB40003D
S3150800389083B001EB00151E4600216846DDF840B0EE
S315080038A0FDF796FA032000EA9700800000F18040B1
S315080038B000F59830BAF1000F67D0D0F8081801EA79
S315080038C00901414512D03D490968214206D068469A
S315080038D0FDF783FA07B00020BDE8F08FD0F8081886
S315080038E021EA090141EA0801C0F8081885F820709C
S315080038F085F8216085F822B00598C5E909A028460B
S3150800390002F0BAFD2E49ED600868A0430860081D5C
S315080039100268A2430260062E22D2DFE806F02103DF
S31508003920080F0803016821430160002003E00868C6
S3150800393020430860012085F8230011E0026822432D
S3150800394002600868204308601E4B1C603846FEF774
S3150800395031FF19682142F8D180F0010085F823006B
S315080039601648016821430160042E02D0052E05D0B1
S315080039701AE03846FEF71EFF20B915E03846FEF76E
S3150800398019FF88B9104804600EE0D0F8080800EA64
S315080039900900404508D109480168A1430160002093
S315080039A06862284602F068FD6846FDF716FA07B011
S315080039B00120BDE8F08F000048A10020003C01402E
S315080039C0083C0140143C0140103C01404A88002A4A
S315080039D001BF8A88002AC98801290FD190F84610A4
S315080039E003290BD000F1480101660121A0F86410F3
S315080039F0A0F866100249C16500207047012070478B
S31508003A00A11C000870B5044688881546002804BF1E
S31508003A10C888002806D194F84600032802D04888AA
S31508003A20012801D9012070BD10F0FF0084F8480074
S31508003A3014BF0520042084F846002046FEF704FA41
S31508003A4025B10020A4F864000148E065052070BD92
S31508003A50A11C000803F0F4BA0123036000200B60E0
S31508003A60C2E90000704770B505460C460120FDF70F
S31508003A7053FB0220FDF750FBA1882846C9B2FFF781
S31508003A80CDFC0220FDF734FBBDE870400120FDF7B0
S31508003A902FBB38B505460C460120FDF73DFB022035
S31508003AA0FDF73AFB6946284600F02DF9002819BFAC
S31508003AB09DF80000A080A08920F0800008BFA081A2
S31508003AC00220FDF715FB0120FDF712FB38BD0000AB
S31508003AD0004870470CE0002000F01F01012202FA9E
S31508003AE001F14009800000F1E020C0F8801110467D
S31508003AF0704710B50446406A002808BF10BD94F800
S31508003B002000FEF757FE94F82320824218BF10BD06
S31508003B1094F820C00146636A6046A26A984794F8FA
S31508003B202100032818BF10BD94F8230080F0010077
S31508003B3084F8230010BD2DE9F041154600EB451425
S31508003B400746D4F808090E4610F0010F1CBF0120DD
S31508003B50C4F80809D4F8000910F0004F18BFBDE8EA
S31508003B60F0816DB306EB8500016900291CBF806AE8
S31508003B7000282DD04FF0010229463046FDF7DFFD1B
S31508003B8000281CBF011D006822D009B340F400229A
S31508003B90C4F81029D4F8002942F00442C4F80029D0
S31508003BA007EB053202F580520028D8BFBDE8F08140
S31508003BB051F8043B1360001F0028F9DCBDE8F081CA
S31508003BC0F16D29B13046884796F84400316CDCE738
S31508003BD0D4F8000940F00060C4F80009BDE8F08197
S31508003BE0F8B51C4615000B46064614D06A46294603
S31508003BF01846FDF76BFD011D046006EB053000F560
S31508003C008050002CD8BFF8BD0268241F41F8042B49
S31508003C10002CF9DCF8BD03F16801196483F8444007
S31508003C20EBE72DE9F041064688460120FDF774FAD0
S31508003C300220FDF771FA746914F0100F14D0306A77
S31508003C4000F00F02C0F30A1300F4F010B0F5802F4D
S31508003C5018BFB0F5402F03D141463046FFF7C0FFE5
S31508003C60746914F0100FEAD114F4802F11D0D6F825
S31508003C7018084FF0000705042D0C0AD015F0010F9F
S31508003C8004D03A4641463046FFF755FF7F1C6D087B
S31508003C90F4D114F4002F10D0D6F818084FF0000706
S31508003CA0050C0AD015F0010F04D03A4641463046B5
S31508003CB000F040F87F1C6D08F4D114F4805F04D03E
S31508003CC04146304600F076F813E014F4006F06D04B
S31508003CD04146304600F070F94FF40060706114F008
S31508003CE0004F06D04146304600F00AF94FF0004032
S31508003CF070610220FDF7FCF9BDE8F0410120FDF7EF
S31508003D00F7B90020704701F0F7B94109890001F1B8
S31508003D10E021D1F8001100F01F0021FA00F000F0B0
S31508003D2001007047024A52F820008180704700005F
S31508003D309478000830B400EB4213D3F808CB1CF093
S31508003D40010F1CBF0124C3F8084B1CF0080F1CBF49
S31508003D504FF0080CC3F808CB72B101EB820000697A
S31508003D60806800281CBFD3F8000B40F0006014D010
S31508003D70C3F8000B30BC704791F8472042F4002284
S31508003D8042F0C042C0F8102BD0F8002B42F0044293
S31508003D90C0F8002B30BC00F0C9B8881890F8240089
S31508003DA040F40020C3F8100BD3F8000B40F0044091
S31508003DB0DEE700002DE9F0470C464FF0FF31416180
S31508003DC0402141624FF04011816294F858208023C7
S31508003DD00021002AC4BF4FF0FF0C4FF0804515DDC7
S31508003DE000EB810643F48002C6F8002100EB41127D
S31508003DF0C2F808C9C2F808CBC2F80059C2F8005B75
S31508003E0094F85820491C40338A42E9DC4FF486610D
S31508003E1001614FF40041C0F80019C0F8001B0026E4
S31508003E20C0F810694FF0C041C0F8101BB4F8B010C4
S31508003E304FF0011389084FF001024FF0020C18BF2A
S31508003E40DFF89C802CD011F0030523D0A71804EBCB
S31508003E50820997F8247048EA8545D9F828903D43A1
S31508003E60B9F1000F0AD045F0006500EB421745EAA4
S31508003E708255C7F8005943EA0C030BE047F40029BA
S31508003E8000EB4217C7F8109B45F00445C7F8005BDE
S31508003E9043EA0C4389084FEA4C0C02F10102D2D1DD
S31508003EA00125C0F810580921C0F81418C0F81C38A4
S31508003EB00C498161D0F8001821F4FE61C0F8001899
S31508003EC0A91E0020FDF7DAFC0320E56484F8460005
S31508003ED084F845602046BDE8F047FDF7B5BF000009
S31508003EE00080001010180C80044951F82000008842
S31508003EF010F0400018BF01207047000094780008B1
S31508003F00D0F8042822F00102C0F8042891F8B2007B
S31508003F1081F846000846FDF797BF000002494FF0B2
S31508003F20A040FFF77EBE0000E4A4002070B5064658
S31508003F300D460846FEF7DEFB0446042C0ED2DFE8E3
S31508003F4004F00D2E0B02D6F8000895F8451040EA45
S31508003F500110C6F8000801E00020E865002229469D
S31508003F603046FFF7E8FD052C18BF70BD012495F80B
S31508003F7058000128D8BF70BD05EB840001690029E7
S31508003F801CBF806A002804D0224629463046FFF71F
S31508003F90D2FD95F85800641CA042EDDC70BDD6F839
S31508003FA0000940F40010C6F80009D6F8000B40F4E2
S31508003FB00010C6F8000B70BD084691F8461080F848
S31508003FC0B210062180F84610FDF73EBF0020704764
S31508003FD070B5044648880D46030AC1B2E888454EBE
S31508003FE0A4F866004FF0000CB0B194F84620032AF6
S31508003FF00AD8E26C42B1C4F84CC094F84720904203
S3150800400028BF1046A4F86600C4F860C0A4F864C0C7
S315080040106878062805D056E0A4F864C00020E6654E
S3150800402070BD012B04D0022B13D0032B1FD04AE0FE
S315080040302A4601212046FDF723FC00283ED0011D13
S315080040402166B4F866100079814235D2A4F8641066
S3150800405034E02A4602212046FDF712FC70B3011D02
S315080040602166B4F86610C088814225D2EEE711B100
S3150800407005290AD013E020482066B4F8660004280B
S3150800408028BF0420A4F8640018E01C49087830B159
S315080040902166B4F86610814238BF0846F2E72A4618
S315080040A003212046FDF7ECFB40B1011D2166B4F85B
S315080040B0661000798142C9D30146C7E7206E10B160
S315080040C00020E66570BD2A46FF212046FDF7D8FB8D
S315080040D0002804BF012070BD00F10A01216640884E
S315080040E0B4F86610A0F10A02914228BF1146A4F856
S315080040F06410E5E7A11C000868A0002050B600205F
S3150800410010B503280ED2084951F82010898A11F4EF
S31508004110007F07D00549085CFEF74CFB00281CBF4A
S31508004120002010BD012010BD947800088E78000884
S31508004130054A002952F82000818914BF41F0200160
S3150800414021F020018181704794780008044951F8CC
S315080041502000808910F0800018BF012070470000F9
S3150800416094780008054A002952F82000818914BF6E
S3150800417041F0800121F08001818170479478000820
S315080041807047FEE700F00ABA024901480860FEE7F0
S315080041900400FA050CED00E070B5284C254D264EB6
S315080041A02168302807D0402837D0306840F004000E
S315080041B0306030BF70BD002918BF8847286840F0B6
S315080041C004002860306840F205210843306030BF9B
S315080041D01B48016841F480310160296821F0040117
S315080041E02960016811F4003FFBD0016841F0807135
S315080041F00160016811F0007FFBD012490A6842F09D
S3150800420002020A60016821F0010101606068002865
S3150800421008BF70BDBDE870400047002918BF884731
S31508004220286840F004002860306840F006003060D6
S3150800423030BF70BD10ED00E0007000400CA00020FB
S315080042400038024008380240704700F02EBA00F0E5
S3150800425099BA000070B50E4E04463068A8B9012513
S31508004260A5610021E561C4E9081104F12002111FC6
S31508004270081FFFF7F1FB0020C4E9020006490548BC
S31508004280C4E90001C4E904013560002070BD0000DE
S31508004290A4A00020000095D9EE1FCC0130B583B04C
S315080042A00C46054600216846FCF792FD2846FDF7B0
S315080042B05FFC78B1856825EA040100248160204600
S315080042C0FDF756FC806858B16846FCF786FD03B0D2
S315080042D0284630BD6846FCF780FD03B0002030BD97
S315080042E0641C012CEBDB0420FDF77CF9ECE70000ED
S315080042F0F0B58BB00546FDF73BFC0446002108A83F
S31508004300FCF766FD002C4FD0E06818B90021284656
S3150800431000F002FB2BA02022694602F0EBFB0026E8
S315080043202C4B00281ABF0020EC461E7010D01CF833
S31508004330001003EB400200299170D6701CBF401C88
S315080043402028F4DB022101EB400018700320587086
S31508004350002202212046FDF793FA0646206818BB7C
S3150800436016B368212046E768FBF7ABFF0020FF225B
S31508004370E76004EB4001401C81F8382081F83920B9
S315080043800428F6DB65712271F07A10F0400FB4F854
S31508004390500014BF40F0010020F00100A4F85000BE
S315080043A02846FDF799FD28B108A8FCF716FD0BB0BD
S315080043B00020F0BD0120206008A8FCF70EFD0BB018
S315080043C00120F0BD5553425F4E414D455F434F4E68
S315080043D04649470050B6002070B50C46C0F3421156
S315080043E000F01F0682B015460846FDF7C1FB0028F7
S315080043F01EBF01680029042E48DAFF2D12D0691E57
S31508004400032943D2FF2C02D0611E03293ED200EBBA
S31508004410460696F83810FF2904BF96F83910FF2982
S3150800442034D102E0FF2CEFD130E0FF2D03D000EBB2
S315080044308501096951B3FF2C03D000EB8401096992
S3150800444021B3FF2D03D000EB8501896AF1B9FF2C52
S3150800445003D000EB8401896AC1B10021FF2D09D080
S3150800446000EB410292F83830AB421CBF92F8392073
S31508004470AA420BD0FF2C0DD000EB410292F838303F
S31508004480A3421CBF92F83920A24203D102B04FF0D2
S31508004490000070BD01F101010429DFDB0021684637
S315080044A0FCF796FC86F8385086F839406846FCF7DB
S315080044B094FC02B0012070BD30B5C0F3421100F083
S315080044C01F0583B00846FDF753FB04001CBF206890
S315080044D0002801D0042D02DB03B0002030BD0021E6
S315080044E06846FCF775FC04EB4501002291F8380094
S315080044F0FF2806D004EB8000006910B10260426014
S315080045008260FF2381F8383091F83900FF2806D0F9
S3150800451004EB8000006910B102604260826081F895
S3150800452039306846FCF759FC03B0012030BD00005D
S3150800453030B583B00546FDF71BFB040004BF03B086
S3150800454030BD00216846FCF743FC2068002818BFE8
S31508004550002109D004EB410292F83800FF2804BF75
S3150800456092F83900FF2805D06846FCF736FC03B0F8
S31508004570002030BD491C0429ECDB002020602846B9
S31508004580FEF722FA0448FCF76CFC6846FCF725FCA3
S3150800459003B0012030BD0000A08601002DE9F74FC9
S315080045A08A4684B0C0F3421100F01F0408460391FE
S315080045B0FDF7DEFA5FEA00091FD0042C1DDA99F828
S315080045C04600052819D109EB440090F838B0BBF12C
S315080045D0FF0F12D009EB8B000290006968B1002129
S315080045E06846FCF7F5FB0024069EA046002E88BF09
S315080045F009EB0B074BD924B115E007B00020BDE83D
S31508004600F08F02980069D0E900218A4202BF8268C9
S31508004610002A002405D001EB011100EB810000F10E
S315080046200C04002C3AD097F8200021680D1AAE42E7
S3150800463038BF3546211D01442A465046FBF790FDF2
S3150800464097F82000761B2844C0B287F82000216816
S31508004650AA44A844884217D1002287F82020029845
S3150800466014460069D0E900318B4204BF8368002BE9
S3150800467006D001F10101082908BF0021C0E901128D
S3150800468059464846FDF77CFA06988045B3D36846EE
S31508004690FCF7A3FB07B04046BDE8F08F012000FAFF
S315080046A00BF10398FDF7EAF8F1E72DE9F047C0F3B7
S315080046B0421100F01F054FF47A740846FDF758FAC0
S315080046C05FEA000851D0042D4FDA98F8460005280D
S315080046D052D108EB450090F83990B9F1FF0F44D054
S315080046E008EB8906306900283FD0D0E900218A42C4
S315080046F03CBF501A00F1080704D38068002814BF8D
S315080047000827571A3269D2E90001884204BF90681F
S31508004710002834D0002C2BDD49464046FDF7CEFE56
S315080047200020FCF774FB58B1FFF700F840B10620EB
S31508004730FFF7EBFA00281CBF4FF4FA70FCF7ACFB46
S315080047403269D2E9001081423CBF081A00F1080517
S3150800475004D39268002A14BF08250D1AAF420CBF6D
S31508004760641E4FF47A742F46CCE70020BDE8F08724
S3150800477000211160516091600120BDE8F087002C8E
S31508004780FADCF5E72DE9F74F8946C0F3421100F048
S315080047901F0484B000250846FDF7EAF907004FD044
S315080047A0042C4DDA0698002804BF07B0BDE8F08F40
S315080047B0B9F1000F44D097F84600052840D107EB19
S315080047C0440090F839000290FF2839D007EB8000A2
S315080047D003900069002833D000216846FCF7F8FAF0
S315080047E002984FF0000B069E5C4607EB000A0398FA
S315080047F000690268511C082908BF00218368002B3C
S3150800480018BF4FF0000820D0B8F1000F2AD09AF848
S315080048102440B44228BF34462CB12246494608F102
S315080048200400FBF79DFC9AF82400A04288BF4FF0CD
S31508004830010B361BA1442544C8F80040002438E083
S3150800484007B04FF0FF30BDE8F08F43688B4204BFD6
S3150800485001238360016002EB021100EB810000F185
S315080048600C08D1E7641C642C09D9069886422BD11A
S3150800487003980021006901604160816024E00120FD
S31508004880FCF740FC00BB6846FCF7ABFA002804BFFF
S3150800489097F84600052817D138460299FDF70EFE07
S315080048A06846FCF7A5FA3220FCF7F6FA6846FCF7E4
S315080048B0A3FABBF1000F9AD097F84600052803D152
S315080048C038460299FDF7FAFD6846FCF786FA07B0FE
S315080048D02846BDE8F08F30B583B00D460446002162
S315080048E06846FCF775FA2046FDF742F970B1846808
S315080048F044EA05018160A1421CBF0420FCF716FCAE
S315080049006846FCF76AFA03B0204630BD6846FCF7ED
S3150800491064FA03B0002030BD2DE9F0410E460025AB
S31508004920FDF726F9070004BF1C20BDE8F0813868AA
S3150800493000281CBF1D20BDE8F081002E08BF144EBC
S315080049403046FEF7E3FA5FEA000818BFBDE8F081D3
S315080049500F4CF868A04218BF02F00DFFA64208BF28
S31508004960FE6011D03078344628B160880444054486
S3150800497020780028F9D12C1D204602F0FEFE22469A
S315080049803146F860FBF7ECFB4046BDE8F0810000D5
S31508004990407D00080160002141608160C1600161BD
S315080049A041618161C161016241628162C0E90B11A5
S315080049B0C0E90D11704700002DE9F0410446006872
S315080049C0069E1F46006890460D46002808BF13A09D
S315080049D0016861604068A060002239463046FDF7EC
S315080049E0C1FB2061286960612068B0F850102183F6
S315080049F0B0F85010491CA0F85010A88A608348F0F7
S31508004A0002006662C4E9070700200246E06020212A
S31508004A10201DFDF7A7FBE060BDE8F0814D53706BE4
S31508004A207456310070B50446C56800200246E06039
S31508004A302021201DFDF796FBA8420CBF012000206F
S31508004A40E56070BD10B50446D4E9081000B939B957
S31508004A500022FDF787FB2169884204BF012010BDAB
S31508004A60002010BD2DE9F04104460068069D1E464B
S31508004A70006817468846002808BF11A001686160CB
S31508004A804068A060002231462846FDF76BFBC4E962
S31508004A9004082068B0F850102183B0F85010491C5B
S31508004AA0A0F8501000206083E761E060C4E908655B
S31508004AB002462021201DFDF755FBE060BDE8F08188
S31508004AC04D53706B7456310030B50D4693B004469D
S31508004AD0016802A8FFF75EFF0020009044F201007B
S31508004AE045EA00020023194602A8FFF7BBFF02A900
S31508004AF0206801F0E8FB13B030BD012181637047DF
S31508004B002DE9F05F071D0446B9464FF0020B4FF03A
S31508004B10060A4FF00108A06B072880F0B780DFE887
S31508004B2000F09E040D415377A400204600F0BCF81F
S31508004B302020C4F838B0C4E90A90ECE7206804F1EC
S31508004B402C02111FD0F80CC04068036860469847CD
S31508004B50002818BFE06A7DD0C0F12005002D1BDDB6
S31508004B60082D34BF2E46082632464AA1201DFBF7DB
S31508004B70CBFA88B1324649A1201DFBF7C5FA58B1D0
S31508004B806A1E791C3846FBF730FBA06A401EA062F5
S31508004B90E06A401CE062DFE7082D28BF0320BAD38D
S31508004BA0A063B8E7206804F12C02111FD0F80CC0E6
S31508004BB04068036860469847002850D0E06A002895
S31508004BC008BF0420A7D1EBE72046FFF72BFFB0B1BB
S31508004BD020682146C368806802681846904770B105
S31508004BE0206AB0B3606AB0B3FCF732F9C4E90C01C5
S31508004BF00520A063606AA062206AE0628BE7207FD6
S31508004C0010F0010F2ED104212046FFF75DFF29E0A1
S31508004C10FCF71EF9D4E90C2305460E46801A61EB0B
S31508004C200301FDF79FFF1F4A801A71F1000019D290
S31508004C30C4E90C56206804F12C02111FD0F80CC0E8
S31508004C40406803686046984720B1E06A00287FF408
S31508004C5062AF01E003E005E0C4F838A05BE7012095
S31508004C60BDE8F09FC4F8388055E72046FFF7EAFE0E
S31508004C7038B120682146C36880684268184690475C
S31508004C80F0E708212046FFF71FFFEBE70020BDE805
S31508004C90F09F00004D536462675631004D53706BA8
S31508004CA0745631000087930310B50446406A0028FD
S31508004CB008BF10BD20682146C36880688268184608
S31508004CC090470020606210BD2DE9F04304465B481A
S31508004CD083B00D46D0F8100900287DD058482169C0
S31508004CE008180AD0A0F5FF50B0F5803F15D05348F4
S31508004CF002F0BBFB042871D09CE0504802F0B5FBDB
S31508004D00042869D101214D4802F006FC002863D128
S31508004D1001214A4802F0ACFA69E0DFF82891D9F88F
S31508004D2000000028D8BFFBF7D1F9DFF81C81D8F8B6
S31508004D30000028B9FBF7CAF9D8F80000002875D092
S31508004D40D9F80000002871DDD8F800400027A079BE
S31508004D5004280CD1394802F088FB042812D0D9F867
S31508004D6000203648D8F8001002F0B2FB0127D8F820
S31508004D70000002F000FD0020C8F8000003B0384625
S31508004D80BDE8F08304F5127200212C4802F052FBAC
S31508004D90002814BF0025012504F553720121274870
S31508004DA002F048FB00280CBF0124002400212348F8
S31508004DB002F0B2FB002814BF0126002601211F4875
S31508004DC002F0AAFB002818BF012035EA060108BF31
S31508004DD034EA0000CBD1C2E72CE0FFE729461748A2
S31508004DE002F09AFB30BB2946144802F041FA002823
S31508004DF004BF03B0BDE8F08304F11403D4E902123A
S31508004E00CDE900120293D4E9002301460220FCF7FB
S31508004E103BF92076012806D104F11400FCF736F98F
S31508004E2020760128F8D010F0FF0F03D003B0002039
S31508004E30BDE8F08303B00120BDE8F08360C300201D
S31508004E40B0DFFFBF5CA0002058A0002010B4DDE949
S31508004E50014C80E81E1000214161F721017610BC43
S31508004E60704710B504461430FCF70CF9204610BDFF
S31508004E70022824BF002070472DE9F04385B08946F3
S31508004E80DDE90C6504461F469046002102A8FBF79B
S31508004E909FFF04EB4400384900EBC40001EBC00C4B
S31508004EA0DCF8140010F4003F06D002A8FBF795FFC3
S31508004EB005B00120BDE8F0830020CCE90F04CCF84A
S31508004EC01400DCF8141041F0080141F40031CCF864
S31508004ED0141015F0080F05D0DCF8141041F4807191
S31508004EE0CCF8141015F0100F05D0DCF8141041F0AA
S31508004EF00401CCF8141015F0020F05D0DCF81410D4
S31508004F0041F40061CCF8141040F21231CCF8341098
S31508004F1000224FF48371CCF81820CCF83810CCF85E
S31508004F201C201649CCF8000001EB04224FF48071CE
S31508004F30CCE90101CCE9030204EB4401104A01EB78
S31508004F40C41102EBC1024FF48361CCF82000CCE90E
S31508004F500901CCE90B02CDE900653B4642464946C4
S31508004F602046FDF765FC044602A8FBF736FF05B0A8
S31508004F702046BDE8F083000068C0002020AC002071
S31508004F8020AE0020022824BF0020704710B582B04A
S31508004F90044600216846FBF71BFF04EB4400104952
S31508004FA000EBC40001EBC001486910F4003F10D0C3
S31508004FB00020C1E90F04486920F400304861204602
S31508004FC0FEF7ACF804466846FBF707FF02B0204632
S31508004FD010BD6846FBF701FF02B0012010BD0000B6
S31508004FE068C00020022824BF0020704770B50E460E
S31508004FF0054600EB4500374900EBC50001EBC00448
S3150800500082B0606910F0040F03D0112E3CD0132E25
S315080050102ED000216846FBF7DBFE236AE06A0022F1
S3150800502088B3002A46D0167004F1200002F0BEFBB1
S31508005030616B88420FD3606910F4807F03D0012129
S31508005040284600F0E9FA606910F4006F03D00021E1
S315080050502846FFF76DF86846FBF7BFFE0521284688
S3150800506000F0FAFA0120FCF761F802B0012070BDE1
S31508005070FBF7EEFEA061E161606920F0080060615F
S3150800508002B0012070BD04E0606940F0080060616C
S31508005090EBE703F1010CC4F820C0A06A844508BFF9
S315080050A02262D4E90801884204BF0120E062206B2D
S315080050B0C218B6E70121284600F0CEFA06A002F08B
S315080050C04FFB09A0FCF74CF86846FBF786FE02B0D2
S315080050D0002070BD68C000200C42756666657220A7
S315080050E04F56464C570D0A00427566666572204F44
S315080050F056464C570D0A0000022824BF0020704768
S3150800510030B50D4600EB400101EBC000254983B0E0
S3150800511001EBC00400216846FBF75AFE606910F0EF
S31508005120010F60690AD020F0010060611320287021
S315080051306846FBF752FE03B0012030BD10F0020F9F
S315080051400BD0606920F00200606111202870684663
S31508005150FBF743FE03B0012030BDD4E9002000214F
S31508005160904204BFE268002A09D000F10102626099
S31508005170A3689A4208BF6160E1602169014451B1A0
S31508005180087828700220FBF7D1FF6846FBF725FE52
S3150800519003B0012030BD6846FBF71FFE03B00020B0
S315080051A030BD000068C000202DE9F04784B01646DF
S315080051B088468246022806D3FAF788FF04B04FF0DD
S315080051C0FF30BDE8F087B8F1000F3AD00AEB4A0085
S315080051D04F4900EBCA0001EBC004606910F4803F38
S315080051E02FD1606910F4003F2BD00025A946002E68
S315080051F065D9002102A8FBF7EBFD721B0092616AD4
S3150800520008BF4F4629D0206A814204BFE36A002BB3
S315080052101CD088429DBF0846A36A181A0B4688BF49
S31508005220C01A824298BF1046009008446062A26A7B
S31508005230904208BFC4F82490C4F82C90206B4718F5
S315080052400BE004B04FF0FF30BDE8F087CDF80090D2
S31508005250C4F824904F46C4F82090002F48D0D4E9CB
S315080052600810814248D2A26A0A44121AA36B9A42CB
S3150800527018D8884246D9A26A1144081A00990844DF
S3150800528098420FD9606910F4807F03D001215046F7
S3150800529000F0A4F9606910F4006F03D001215046AC
S315080052A0FEF746FF08EB05003946009AFAF758FF5D
S315080052B00098054402A8FBF790FDAE4299D8002154
S315080052C06846FBF785FDC4F83C90D4E90801884296
S315080052D004BFE06A002804D04FF00501504600F0EC
S315080052E0BBF96846FBF779FD04B02846BDE8F087A8
S315080052F002A8FBF772FDE2E7E26A002A14BFA26A77
S315080053000A1AB3E7E26A002A14BFA06A081AB5E7C0
S3150800531068C0002070B584B00546022802D3FAF7A3
S31508005320D5FE8BE005EB4500504900EBC50001EBC7
S31508005330C004606910F4803F7BD1606910F4003FB7
S3150800534077D06069062610F0040F03D0606910F064
S31508005350080F73D02846FEF7D3FE00286ED000212A
S315080053606846FBF735FD6846FBF73BFD98B92846C6
S31508005370FEF7ECFE78B13046FEF7C7FC58B1D4E923
S315080053800001884204BFE068002833D0606910F441
S31508005390803F50D136E0D4E90001884204BFE06876
S315080053A0002827D0606910F4803F44D12846FEF7CC
S315080053B0A7FEE8B32846FDF765FF40B92846FEF77D
S315080053C09FFEA8B32846FDF75DFF0028F6D002A980
S315080053D02846FFF791FE9DF808102846FEF7A2FC1E
S315080053E06846FBF70BFDD4E90001884204BFE06874
S315080053F00028D7D16846FBF7F0FC606910F4803FB7
S315080054001CD11EE02846FEF77BFE88B16846FBF7EE
S31508005410EFFC4FF47A70FBF73FFD6846FBF7ECFCB0
S31508005420D4E90001884204BFE0680028AED1E1E76C
S3150800543001E018E002E06846FBF7CFFC04B0002064
S3150800544070BD2846FDF71EFF20B92846FEF758FE10
S315080054500028F6D12846FEF747FD20B92846FEF76C
S315080054604FFE0028F6D104B0012070BD68C00020A8
S315080054702DE9F04F002585B0174681468846022853
S315080054800FD237B3B8F1000F0BD009EB49005249D8
S3150800549000EBC90001EBC004606910F4803F07D037
S315080054A017E0FAF713FE05B04FF0FF30BDE8F08FAE
S315080054B0606910F4003F0CD060694FF0000A10F0E4
S315080054C0040F4FF0010B24D0606910F0080F05D0C7
S315080054D01FE005B04FF0FF30BDE8F08FFCF7F8FC91
S315080054E0C0EB00101BEB800015D0FCF7F1FCC0EBFD
S315080054F000108600FBF7ACFCA269E369801A61EB31
S315080055000301301A7AEB010005D2606940F0080001
